{
  "_format": "hh-sol-artifact-1",
  "contractName": "DonateToACharity",
  "sourceName": "contracts/DonateToACharity.sol",
  "abi": [
    {
      "inputs": [],
      "stateMutability": "nonpayable",
      "type": "constructor"
    },
    {
      "anonymous": false,
      "inputs": [
        {
          "indexed": true,
          "internalType": "address",
          "name": "donor",
          "type": "address"
        },
        {
          "indexed": false,
          "internalType": "string",
          "name": "donorName",
          "type": "string"
        },
        {
          "indexed": false,
          "internalType": "uint256",
          "name": "amount",
          "type": "uint256"
        },
        {
          "indexed": false,
          "internalType": "string",
          "name": "charity",
          "type": "string"
        }
      ],
      "name": "NewDonor",
      "type": "event"
    },
    {
      "inputs": [],
      "name": "getBalance",
      "outputs": [
        {
          "internalType": "uint256",
          "name": "",
          "type": "uint256"
        }
      ],
      "stateMutability": "view",
      "type": "function"
    },
    {
      "inputs": [],
      "name": "getDonors",
      "outputs": [
        {
          "components": [
            {
              "internalType": "address",
              "name": "donorAddress",
              "type": "address"
            },
            {
              "internalType": "string",
              "name": "donorName",
              "type": "string"
            },
            {
              "internalType": "uint256",
              "name": "amount",
              "type": "uint256"
            },
            {
              "internalType": "string",
              "name": "charity",
              "type": "string"
            }
          ],
          "internalType": "struct DonateToACharity.DonorInfo[]",
          "name": "",
          "type": "tuple[]"
        }
      ],
      "stateMutability": "view",
      "type": "function"
    },
    {
      "inputs": [
        {
          "internalType": "string",
          "name": "_donorName",
          "type": "string"
        },
        {
          "internalType": "string",
          "name": "_charity",
          "type": "string"
        }
      ],
      "name": "sendEthToCharity",
      "outputs": [],
      "stateMutability": "payable",
      "type": "function"
    },
    {
      "inputs": [],
      "name": "withdraw",
      "outputs": [],
      "stateMutability": "nonpayable",
      "type": "function"
    }
  ],
  "bytecode": "0x608060405234801561001057600080fd5b50600180546001600160a01b031916331790556107ad806100326000396000f3fe60806040526004361061003f5760003560e01c806312065fe0146100445780633ccfd60b1461006457806396f300d41461007b578063d11d3a671461009d575b600080fd5b34801561005057600080fd5b506040514781526020015b60405180910390f35b34801561007057600080fd5b506100796100b0565b005b34801561008757600080fd5b5061009061014b565b60405161005b9190610559565b6100796100ab3660046106a3565b6102ee565b6001546001600160a01b0316331461010f5760405162461bcd60e51b815260206004820152601760248201527f4f6e6c79206f776e65722063616e20776974686472617700000000000000000060448201526064015b60405180910390fd5b6001546040516001600160a01b03909116904780156108fc02916000818181858888f19350505050158015610148573d6000803e3d6000fd5b50565b60606000805480602002602001604051908101604052809291908181526020016000905b828210156102e557600084815260209081902060408051608081019091526004850290910180546001600160a01b0316825260018101805492939192918401916101b890610707565b80601f01602080910402602001604051908101604052809291908181526020018280546101e490610707565b80156102315780601f1061020657610100808354040283529160200191610231565b820191906000526020600020905b81548152906001019060200180831161021457829003601f168201915b505050505081526020016002820154815260200160038201805461025490610707565b80601f016020809104026020016040519081016040528092919081815260200182805461028090610707565b80156102cd5780601f106102a2576101008083540402835291602001916102cd565b820191906000526020600020905b8154815290600101906020018083116102b057829003601f168201915b5050505050815250508152602001906001019061016f565b50505050905090565b6000341161034e5760405162461bcd60e51b815260206004820152602760248201527f496e73756666696369656e742066756e64732c20506c656173652066756e64206044820152661858d8dbdd5b9d60ca1b6064820152608401610106565b6040805160808101825233815260208082018581523493830193909352606082018490526000805460018101825590805282517f290decd9548b62a8d60345a988386fc84ba6bc95484008f6362f93160ef3e563600490920291820180546001600160a01b0319166001600160a01b0390921691909117815593518051939493610401937f290decd9548b62a8d60345a988386fc84ba6bc95484008f6362f93160ef3e564909301929190910190610473565b506040820151600282015560608201518051610427916003840191602090910190610473565b505050336001600160a01b03167fc7eb6e363bcdaf8781f74469f52c5fd4364ddeb7f895143034c9c7dc766a5f4183348460405161046793929190610742565b60405180910390a25050565b82805461047f90610707565b90600052602060002090601f0160209004810192826104a157600085556104e7565b82601f106104ba57805160ff19168380011785556104e7565b828001600101855582156104e7579182015b828111156104e75782518255916020019190600101906104cc565b506104f39291506104f7565b5090565b5b808211156104f357600081556001016104f8565b6000815180845260005b8181101561053257602081850181015186830182015201610516565b81811115610544576000602083870101525b50601f01601f19169290920160200192915050565b60006020808301818452808551808352604092508286019150828160051b87010184880160005b838110156105f257888303603f19018552815180516001600160a01b03168452878101516080898601819052906105b98287018261050c565b9150508782015188860152606080830151925085820381870152506105de818361050c565b968901969450505090860190600101610580565b509098975050505050505050565b634e487b7160e01b600052604160045260246000fd5b600082601f83011261062757600080fd5b813567ffffffffffffffff8082111561064257610642610600565b604051601f8301601f19908116603f0116810190828211818310171561066a5761066a610600565b8160405283815286602085880101111561068357600080fd5b836020870160208301376000602085830101528094505050505092915050565b600080604083850312156106b657600080fd5b823567ffffffffffffffff808211156106ce57600080fd5b6106da86838701610616565b935060208501359150808211156106f057600080fd5b506106fd85828601610616565b9150509250929050565b600181811c9082168061071b57607f821691505b6020821081141561073c57634e487b7160e01b600052602260045260246000fd5b50919050565b606081526000610755606083018661050c565b846020840152828103604084015261076d818561050c565b969550505050505056fea2646970667358221220f03c8cda706cad3576acf94852c5e5e5e63f7999f3a3654606c900c172b9851c64736f6c63430008090033",
  "linkReferences": {},
  "deployedLinkReferences": {}
}